:040000000C944D000F
:100004000C9400000C9400000C9400000C949500D7
:100014000C9400000C9400000C9400000C9400005C
:100024000C947A000C9400000C9400000C940000D2
:100034000C9400000C9400000C9400000C9400003C
:100044000C9400000C9400000C9400000C9400002C
:100054001027E80364000A000100001000011000EA
:10006400010000004C4546542046524F4E20524950
:100074004748540025303364202025303364202041
:1000840025303364200080C00100020066000200B5
:1000940090018A000000F894EE27ECBBF1E0FBBF6E
:1000A400EBBFE5BF8DE0A2E0BB27ED938A95E9F7AE
:1000B40080E094E0A0E6ED930197E9F7ECE8F0E046
:1000C40085919591009761F0A591B5910590159052
:1000D400BF01F00105900D920197E1F7FB01F0CF0C
:1000E400EFE5EDBFE4E0EEBFC0E6D1E00C945301D0
:1000F4006A937A93AA93BA93EA93FA93EFB7EA933B
:10010400A0E6B1E00E94E106EF5FFF4F6F4F7F4F23
:100114000E94E606E991EFBFF991E991B991A9919D
:10012400799169911895AA93BA93EA93FA93EFB7E0
:10013400EA93ACE8B1E00E94AE04A0918C01B091C6
:100144008D011F9729F4E0E0E0938C01E0938D0189
:10015400E991EFBFF991E991B991A9911895949812
:10016400E0E09599E1E0929893989698979808958D
:10017400F6DFC39A85E38A95F1F7C398B29903C071
:10018400E0E0E2BFFBCF0E94B404B29B03C00E9434
:10019400BE04DCF3E0916001F091610160916201C1
:1001A400709163010E94CE040E94E504A09188012D
:1001B400B091890180918A0190918B012FC0CFDF8A
:1001C400C49A85E38A95F1F7C4989F9BFECFE0E03B
:1001D400E2BF0E94B4049F9B03C00E94BE04DCF3F0
:1001E40011C0BDDFC09A85E38A95F1F7C098B19B31
:1001F400FECFE0E0E2BF0E94B404B19B03C00E94C2
:10020400BE04DCF3E0916001F09161016091620150
:10021400709163010E94CE04DF01CB01E0E0F0E0C5
:1002240060E070E40E942B06A6E9B3E48BE09DE352
:100234000E94DD050E94E504E0918801F0918901A6
:100244000E9478050895BA93AA93A981AA233AF043
:10025400E881F981FBBDEABD969A979809C0A98106
:10026400AA2332F40E94EE04FBBDEABD9698979A45
:100274000C942404BA93AA93A981AA233AF0E8819E
:10028400F981F9BDE8BD929A939809C0A981AA237E
:1002940032F40E94EE04F9BDE8BD9298939A0C944E
:1002A4002404E0E3EABBE0EFEBBBE9E1E7BBE0E019
:1002B400E8BBE4BBE5BBECEFE1BBE0E0E2BBE1E0C3
:1002C400E3BFE0E0E2BFECBFE1EAEFBDEAE0EEBD90
:1002D400E0E0EDBDECBDE7BDE6BDEBBDE3EBEABDA3
:1002E400E0E0E9BDE3EBE8BDE0E0E2BDE7E0E5BD69
:1002F400E0E0E4BDE3BDE1E4E9BFE0EEE7B9E6E850
:10030400E6B9E0E0E0BFA0E10E94650478948824A7
:1003140099244424552466247724E0E0E0938E0154
:10032400E0938F01A0918E01B0918F01119774F425
:100334001FDF8E0E9F1E55DF4E0E5F1E40DF6E0EBA
:100344007F1EAEE8B1E00E94AE04ECCF440122016E
:100354003301E0E0EA93A0E00E941504E4E6F1E052
:10036400FA93EA93E8E6F0E0FA93EA9380E00E94D5
:10037400B0032496A4E6B1E00E945404E0E0EA93BA
:10038400A1E00E941504E4E7F1E0FA93EA93E8E7B8
:10039400F0E0FA93EA93F3010E94F704F4010E9457
:1003A400F704F2010E94F7048CE00E94B003609607
:1003B400A4E7B1E00E9454040E94FC0494F00E945B
:1003C4000105ACE4BFEF56DFA6EDB1E00E943F05A6
:1003D4000E940105A4EBB0E04DDFA6E9B0E00E9465
:1003E4003F050E94FC046CF4D201A619B7091297C8
:1003F40044F4D201A619B709EEEFFFEFEA17FB07A1
:100404000CF005C00E940105A4EBB0E033DF0E94AC
:10041400FC042CF4D201A619B70912970CF411C0EC
:10042400E6E0F0E06E167F0634F4DD98A4E6B0E072
:100434000ADFAFEF04C0A8E7B0E005DFACEDB0E041
:1004440019DFDD9A0E94FC042CF4D301A419B50928
:1004540012970CF40EC0E6E0F0E04E165F061CF4B2
:10046400DC98AFEF01C0A0EFB0E0EDDEA4E6B0E0B1
:1004740001DFDC9AA4E6B0E00E943F0548CFFFCF3D
:10048400BA93AA931A930A93AA81BB8112960E94E3
:10049400DD06309729F1AA81BB8114960E94DD06FE
:1004A4008F01309761F00230E0E01E0780F0F80120
:1004B40031978F01AA81BB811496ED93FC93AA8195
:1004C400BB8112960E94AE043197AC81A083AA81AD
:1004D400BB810E94DD06FF2312F00E94AE0406C019
:1004E400AA81BB81EFEFFFEFED93FC9319810881A3
:1004F40025960895BA93AA9326970E94F40610E0CD
:10050400AC85BD85E0E0F0E0ED93FC93EA89FB89DE
:100514003196EA8BFB8B3197E4912E2FE03009F46E
:1005240015C1E12FE03039F4253211F411E002C095
:100534000E9405050AC1E130A9F4253219F40E948C
:10054400050502C112E040E000E02D3211F401E0A3
:10055400FCC02B3211F44BE2F8C0203211F440E21B
:10056400F4C002C0E23039F450E013E0203311F457
:100574000068EBC003C0E33009F0E7C0203310F09B
:100584002A3308F007C0AAE05A9F502DE22FE05307
:100594005E0FDBC0E22FE33649F40E940C05E889C4
:1005A400F989A481AA930E941205CEC0E33741F4CD
:1005B4000E940C050E9418050E9495041E2F0AC073
:1005C400E03761F40E940C050E9418050E94A10402
:1005D4001E2F086002600F7730E034C0E43611F05B
:1005E400E93611F4046002C0E53731F4E4E5F0E0E3
:1005F400EE83FF8315E00CC0E83511F4086003C0F6
:10060400E83709F0A1C0EEE5F0E0EE83FF8314E0E3
:1006140002FF14C00E940C050E942205AB85AA2388
:100624003AF4EA85FB850E947906EA87FB874DE266
:10063400403011F01F5F01C00B7F04C00E940C0505
:100644000E94220500FD11C0151778F407FF08C0A9
:1006540002FF04C00B7F242F115001C020E301C00E
:1006640020E20E9405055150EFCF312F01FF17C042
:100674003030A1F003FF06C0EE81FF812591EE83A7
:10068400FF8305C0AE81BF812D91AE83BF830E94DD
:100694000505503009F051503150EACF4BC020E3EA
:1006A400EE81FF810E94EB06E887F987EE81FF81E6
:1006B4003296EE83FF83E885F985AA85BB85AE175C
:1006C400BF0750F02F5FA885B985EA85FB85EA1B33
:1006D400FB0BEA87FB87EFCF2A3328F003FF02C026
:1006E400295F01C0295D04FD1AC0213320F4A885C7
:1006F400B985119709F409C0531710F000FF01C020
:1007040013C020E207FF0BC020E3006102FF07C013
:100714000B7F4A930E941205503009F051500E94F9
:100724000505503009F051503150A885B98512970C
:1007340008F0B5CF00FF08C0503031F05150E0E26E
:10074400EA930E941205F8CF10E0E0CEAC85BD8597
:100754000E94DD060E94FB0664960895FF92F82E1F
:1007640026970E94F6060E942A05309719F4EFEFA7
:10077400FFEF23C0DE0116960E9470068D010E94D1
:100784002A05EE83FF83E0E0E887E987DE011A9615
:100794000E9470060E94DD06FA93EA931A930A9364
:1007A400E2E4F2E0FA93EA93DE011A96A3DE9F01F3
:1007B400AE81BF81E0E0EC93F9010E94FD062A9628
:1007C400FF900895AA93E881E07111F0AB9A01C0FB
:1007D400AB98E881E07211F0AC9A01C0AC98E88162
:1007E400E07411F0AD9A01C0AD98E881E07811F0A1
:1007F400AE9A01C0AE988DE08A95F1F7AA9A8DE081
:100804008A95F1F7AA988DE08A95F1F78AC0AA93A0
:10081400A881D8DFE881E295E883A881D3DF85E861
:100824008A95F1F77EC0AA93E881F0E0E057FE4F85
:10083400E081A981AE0FEBDFE981E0939401E881C7
:10084400E093950122960895A2E00E943105ACE060
:10085400DEDFA1E00E943105E0E0E0939501E09342
:1008640094010895AA93A881AA3031F0E0919601E9
:10087400A0919401AE1760F0E0E0EA93A091950195
:10088400AF5FA0939501CFDFA881AA3009F449C0D6
:10089400E0919401EF5FE0939401A89AA881B7DFF7
:1008A400A8983FC0BA93AA931A93A981BA81ED91EB
:1008B400A983BA831E2FE03019F0A12FD3DFF5CF1F
:1008C400188123960895AA93A39AA49AA59AA69AFE
:1008D400A29AA09AA19AAA98A898A998E881E093C4
:1008E4009601E058E0939201E881E054E09393018B
:1008F400A4E1B0E00E943F050E9437050E9437053D
:100904000E943705A0E25EDF88EC90E00197F1F7E2
:10091400A8E27DDFA4E07BDFA5E879DFA6E077DF4E
:1009240093DF21960895BA93AA93A991B991EE27DA
:10093400FF276D91662311F03196FBCF0895BA938A
:10094400AA93AA27BB27E991F9910590002011F0F9
:100954001196FBCFFD010895ED91FD913196FE9323
:10096400EE930895E0E0E0936001E0936101E09389
:100974006201E09363010895A0916001B091610167
:100984008091620190916301A93CE0E0BE07E0E040
:100994008E07E0E09E070895A0E0B1E080E090E0DB
:1009A4000E94B706DF01CB01E2B7F0E00E948506A2
:1009B4000E9474060E94AF05A0E0B0E080E09EE3D0
:1009C4000E94DD050895E0938801F0938901609306
:1009D4008A0170938B010895E881F981AFEFBFEF2D
:1009E4000E94B206E883F98308950E9485060E9456
:1009F400EF060895EEE0F0E0E815F9050895A8EC97
:100A0400B0E00C9425012A93AD85BE85EF85F88965
:100A140009950895E889F9893497E88BF98B089545
:100A2400AD85BE85EF85F88909950895A889B989AA
:100A340014960E94DD06EE83FF83AE81BF81089584
:100A4400A889B98914960E94DD06EA87FB87089570
:100A5400DE011C960E9470060E94DD0608950E9425
:100A64000904A3E0B0E00C943F05A0E30E94E40372
:100A740088EC90E00197F1F70895109639F080ED35
:100A840097E00197F1F7A8951197C9F708955523B1
:100A940042F4503811F4E0FF04C03196691F791F05
:100AA4006BF050E8572711F45F9373C05F3F31F048
:100AB400660F000C57956795752F08955F93002076
:100AC4000AF073C06CC050E8192E1522880F991FC4
:100AD4009527550F879550E8072E0522660F771F37
:100AE4007527550F67950895689401C0E8945F933E
:100AF400F2DF703818F07F3F08F44BC056E1571B03
:100B0400AAF4519558300EF4593030F0EFEFFFEF5E
:100B14006FEF7FE777F91AC077275523B9F0EE0F07
:100B2400FF1F661F771F5A95D1F710C077275830DB
:100B340028F0EF2FF62F672F5850F9CF552331F0B7
:100B440076956795F795E7955A95D1F700200AF4BD
:100B5400D2D05F910895689401C0E89430976040C2
:100B64007040B1F0002426F0772312F40094C3D02F
:100B7400172E7EE1112032F07A95EE0FFF1F661FCB
:100B8400111CF9CFEF2FF62F612D5F938ADF5F9150
:100B94000895EE27FF27662777275F910895EFEFE3
:100BA400FFEF6FE77FEF5F910895EFEFFFEF6FE7E0
:100BB4007FE75F9108955F9386DF703851F3903833
:100BC40041F301240894791F23F41CF300203AF321
:100BD400ECCF0F921F932F933F934F93112722270C
:100BE4009927689FA0018F9F302D410D591F6B9F3E
:100BF400300D411D591F8E9F27D0BF9F25D06A9F5E
:100C040023D0BE9F1DD0AF9F1BD0AE9F110D291FB7
:100C1400391F491F591FE32FF42F652F522F4F916E
:100C24003F912F911F910F9066232AF0550FEE1FCD
:100C3400FF1F661F02C073954BF229DF5F91089571
:100C4400100D211D391F02C0200D311D491F591FD0
:100C540008955F9338DF703821F411200AF49FCF90
:100C6400A4CF903809F495CF01240894970B1BF472
:100C7400D4F30020F3CF792F1F932F933F934F93F7
:100C840011241127222733274427552790E2AE1732
:100C9400BF078607410730F0AE1BBF0B860B410B25
:100CA400089401C08894551F221F331F111CAA1FCA
:100CB400BB1F881F441F9A9551F7F901612D4F916D
:100CC4003F912F911F91662332F0550FEE1FFF1FA6
:100CD400661F7A9543F2DBDE5F9108950024AF0D21
:100CE400B01D0895EA0FFB1F681F791F0895F19541
:100CF400E195F0400895F09560957095E195FF4F6A
:100D04006F4F7F4F08956F2F660F660B762F0895F0
:100D1400FA9FF02DEB9FF00DEA9FE02DF10D089561
:100D24007A9F702D6B9F700DF89F700DE99F700D69
:100D34006A9F602D710DFB9F600D711DE89F600D12
:100D4400711D8827FA9FF02D610D781FEB9FF00D20
:100D5400611D781FEA9FE02DF10D681F781F08952B
:100D640009D0D6DF0EF4C3DF089512D0D9DF0EF414
:100D7400C2DF0895E894F7FF02C0B9DF6894B7FFB3
:100D840006C0A095B095119600F8039400FA089552
:100D9400E89477FF02C0AFDF689497FF0BC000248C
:100DA400A095B095809590951196801D901D00F8A2
:100DB400039400FA0895ED91FC9111970895ED9133
:100DC400FD916D917D9108957E936E93FE93EE93C4
:100DD40008950590F491E02D08957A936A93FA9317
:100DE400EA9308955A934A933A932A931A930A9347
:100DF40008955D814C813B812A8119810881089580
:00000001FF
